:020000040000FA
:100000000C94BC020C94ED020C94ED020C94ED02E5
:100010000C94ED020C94ED020C94ED020C94ED02A4
:100020000C94ED020C94ED020C94ED020C94ED0294
:100030000C94ED020C94ED020C94ED020C94ED0284
:100040000C94ED020C94ED020C94ED020C94ED0274
:100050000C94ED020C94ED020C94ED020C94B82279
:100060000C94ED020C9482220C9458220C94ED0214
:100070000C94ED020C94ED020C94ED020C94ED0244
:100080000C94ED020C94ED020C94ED020C94ED0234
:100090000C94ED020C94ED020C94ED020C94ED0224
:1000A0000C94ED020C94ED020C94ED020C94ED0214
:1000B0000C94ED020C94ED020C94ED020C94ED0204
:1000C0000C94ED020C94ED020C94ED020C94ED02F4
:1000D0000C94ED020C94ED020C94ED020C94ED02E4
:1000E0000C94ED020C94DD100C949E310C942D1E9A
:1000F0000C94F7300C94AD040C943F130C94290429
:100100000C94A2040C9402230C94BE1D0C944E3249
:100110000C94D5310C94E91F0C944F090C94C10434
:100120000C9420130C941E170C943F0F0C94B304E2
:100130000C9462100C944D100C9484310C94DC03DC
:100140000C9453090C94A4030C942E030C94D9041E
:100150000C948E310C94F3180C9496030C9457095C
:100160000C94B3090C94E31D0C949E040C94B704F6
:100170000C94B2310C946B310C94C41F0C9433204A
:100180000C94E9310C9446030C94081E0C94DF1374
:100190000C9418090C94AA040C94D9080C94F3310B
:1001A0000C94BC310C947A1F0C94C5130C94900BD6
:1001B0000C94DD040C9473030C947A310C94CB04EE
:1001C0000C94D3040C94E61E0C94BD040C94A0145F
:1001D0000C94F1110C94640B0C94220E0C94D80422
:1001E0000C94C8180C940E200C94991D0C94FD319D
:1001F0000C9469130C941C1C0C944C180C94771ED2
:100200000C9448120C9470310C94CF040C94A709F0
:100210000C949C1E0C94490B0C94EF080C94450311
:100220000C942E190C949F1F0C9432030C941C18E0
:100230000C9491170C94A8310C94EB0B0C94C210F5
:100240000C94310E0C94521E0C94C11E0C94B20BE3
:100250000C940B1F0C94121B0C9482030C94A30996
:100260000C94B6090C9467090C94CB310C94551F6F
:100270000C9496310C9498040C94C3080C94BE0909
:100280000C94C5040C94FA080C94B1090C94301F1A
:100290000C94A6040C94DF310D0A007D2C20002C58
:1002A00020007B227661726961626C6573223A205C
:1002B0007B003A20002C2022636F6E6E65637465AC
:1002C00064223A20747275657D002C202268617268
:1002D0006477617265223A20002C20226E616D6580
:1002E000223A2000226964223A20000000210024E2
:1002F0000027002A002D0030003300010100000417
:100300000107010A0100002200250028002B002E11
:10031000003100340002010000050108010B01005A
:100320000020002300260029002C002F00320000AE
:10033000010000030106010901050505050705087F
:10034000080808020202020A0A0808040404040158
:10035000010101010101010303030303030303047A
:100360000707070C0C0C0C0C0C0C0C02020202060A
:10037000060606060606060B0B0B0B0B0B0B0B01FA
:1003800002102020080810204010204080020102A6
:10039000010804020101020408102040808040206E
:1003A00010080402018004020180402010080402A9
:1003B0000108040201010204081020408001020427
:1003C00008102040800D0A007B0000000A0B020983
:1003D0000C0D0E08070304010000000000000000DF
:1003E000000000000000000000000000000000000D
:1003F00000000000000012111000000000000000CA
:1004000000000000000000000000000000000000EC
:10041000485454502F312E3120323030204F4B0D64
:100420000A4163636573732D436F6E74726F6C2D35
:10043000416C6C6F772D4F726967696E3A202A0D97
:100440000A4163636573732D436F6E74726F6C2D15
:10045000416C6C6F772D4D6574686F64733A2050F2
:100460004F53542C204745542C205055542C204F8A
:100470005054494F4E530D0A436F6E74656E742D80
:10048000547970653A206170706C69636174696F4A
:100490006E2F6A736F6E0D0A436F6E6E65637469BB
:1004A0006F6E3A20636C6F73650D0A0D0A002C2085
:1004B000007B00222C20002073657420746F2000C4
:1004C0007B226D657373616765223A202250696EE5
:1004D0002044002C2000223A20002241007B002CE6
:1004E00020007B2272657475726E5F76616C756533
:1004F000223A2000222C20002073657420746F2083
:10050000007B226D657373616765223A2022506912
:100510006E2044002C2000223A20002244007B0060
:100520002073657420746F206F7574707574222C3D
:1005300020002073657420746F20696E70757420BC
:10054000776974682070756C6C7570222C2000209F
:1005500073657420746F20696E707574222C20008E
:100560007B226D657373616765223A202250696E44
:100570002044000002234E3211241FBECFEFD1E2EF
:10058000DEBFCDBF00E00CBF15E0A0E0B2E0E2E1CD
:10059000FDE600E00BBF02C007900D92AE30B10740
:1005A000D9F720E1AEE0B5E001C01D92A935B20750
:1005B000E1F712E0CBEBD2E000E006C021970109A1
:1005C000802FFE010E941C34CA3BD10780E008073F
:1005D000A9F70E9469250C9477360C94000090913D
:1005E0006207891710F080E00895E0916507F091A7
:1005F000660799E0899FE00DF11D1124808584FF35
:10060000F2CF86958170089590916207891710F056
:1006100080E00895E0916507F091660799E0899F71
:10062000E00DF11D1124808587FFF2CF8695817042
:1006300008958CBD9DBD089520E3FC012083329672
:10064000862F82958F706F706A3030F4605D629390
:10065000682F8111F5CF0895695CF9CFFC01818D78
:10066000928D08950895FC012481358162177307E6
:1006700020F480819181009729F410921C058CE16F
:1006800095E00895860F971F08950895AF92BF9241
:10069000CF92DF92EF92FF920F931F93CF93DF934E
:1006A0006C017B018B01040F151FEB015E01AE187D
:1006B000BF08C017D10759F06991D601ED91FC919F
:1006C0000190F081E02DC6011995892B79F7C501BC
:1006D000DF91CF911F910F91FF90EF90DF90CF901E
:1006E000BF90AF900895FC01538D448D252F30E0CD
:1006F000842F90E0821B930B541710F0CF9608952F
:1007000001970895FC01918D828D981761F0A28D5B
:10071000AE0FBF2FB11D5D968C91928D9F5F9F7321
:10072000928F90E008958FEF9FEF0895FC01918DD7
:10073000828D981731F0828DE80FF11D858D90E044
:1007400008958FEF9FEF0895FC01918D228D892FE1
:1007500090E0805C9F4F821B91098F7399270895C9
:100760008FEC95E00E94A40321E0892B09F420E09E
:10077000822F0895FC01A48DA80FB92FB11DA35A93
:10078000BF4F2C91848D90E001968F739927848FB1
:10079000A689B7892C93A089B1898C9183708064D4
:1007A0008C93938D848D981306C00288F389E02D75
:1007B00080818F7D80830895EF92FF920F931F9326
:1007C000CF93DF93EC0181E0888F9B8D8C8D981304
:1007D0001AC0E889F989808185FF15C09FB7F89410
:1007E000EE89FF896083E889F9898081837080645C
:1007F00080839FBF81E090E0DF91CF911F910F91A7
:10080000FF90EF900895F62E0B8D10E00F5F1F4FB5
:100810000F731127E02E8C8D8E110CC00FB607FCC4
:10082000FACFE889F989808185FFF5CFCE010E9452
:10083000BA03F1CFEB8DEC0FFD2FF11DE35AFF4F03
:10084000F0829FB7F8940B8FEA89FB8980818062E0
:10085000CFCFCF93DF93EC01888D8823B9F0AA899D
:10086000BB89E889F9898C9185FD03C0808186FD6B
:100870000DC00FB607FCF7CF8C9185FFF2CF8081BA
:1008800085FFEDCFCE010E94BA03E9CFDF91CF9172
:10089000089580E090E0892B29F00E94B003811137
:1008A0000E94000080E090E0892B49F080E090E019
:1008B000892B29F00E94000081110E94000080E035
:1008C00090E0892B49F080E090E0892B29F00E948C
:1008D000000081110E94000080E090E0892B49F027
:1008E00080E090E0892B29F00E94000081110C9497
:1008F000000008958150823108F05AC0E82FF0E0DE
:100900008827EA57FB4F8F4F0C941C34A604AA0487
:1009100098049E04A204D804AD04B304B704BD0433
:10092000C104C504CB04CF04D804D304D904DD0426
:10093000809180008F77809380000895809180005F
:100940008F7DF9CF80918000877FF5CF84B58F7739
:1009500084BD089584B58F7DFBCF8091B0008F77E3
:100960008093B00008958091B0008F7DF9CF809181
:1009700090008F77809390000895809190008F7DF4
:10098000F9CF80919000877FF5CF8091A0008F777D
:100990008093A00008958091A0008F7DF9CF809171
:1009A000A000877FF5CF809120018F778093200171
:1009B0000895809120018F7DF9CF80912001877F5C
:1009C000F5CFCF93DF93282F30E0F901E653FC4FAA
:1009D0008491F901E158FC4FD491F901E75CFC4F97
:1009E000C491CC23A1F081110E947A04EC2FF0E095
:1009F000EE0FFF1FE15EFC4FA591B491EC91ED234A
:100A000081E090E009F480E0DF91CF91089580E0EB
:100A100090E0FACF1F93CF93DF93282F30E0F901B6
:100A2000E653FC4F8491F901E158FC4FD491F90150
:100A3000E75CFC4FC491CC23A9F0162F81110E94D2
:100A40007A04EC2FF0E0EE0FFF1FEB5FFC4FA59157
:100A5000B4918FB7F894EC91111108C0D095DE23B2
:100A6000DC938FBFDF91CF911F910895DE2BF8CFDC
:100A7000CF93DF9390E0FC01E158FC4F2491875C19
:100A80009C4FFC0184918823C9F090E0880F991F46
:100A9000FC01E551FD4FA591B491FC01EB5FFC4FCA
:100AA000C591D49161110DC09FB7F8948C91209598
:100AB00082238C938881282328839FBFDF91CF9145
:100AC0000895623051F49FB7F8943C91822F80953D
:100AD00083238C93E8812E2BEFCF8FB7F894EC9182
:100AE0002E2B2C938FBFEACF863308F086532091AC
:100AF0007B00982F9870277F922B90937B008770B4
:100B0000806480937C0080917A00806480937A0076
:100B100080917A0086FDFCCF8091780090917900D9
:100B200008953FB7F8948091180590911905A09108
:100B30001A05B0911B0526B5A89B05C02F3F19F0DB
:100B40000196A11DB11D3FBFBA2FA92F982F88274D
:100B5000BC01CD01620F711D811D911D42E0660F28
:100B6000771F881F991F4A95D1F708958F929F92FA
:100B7000AF92BF92CF92DF92EF92FF926B017C0116
:100B80000E9491054B015C01C114D104E104F10400
:100B9000B9F00E949105681979098A099B09683E94
:100BA00073408105910580F321E0C21AD108E10864
:100BB000F10888EE880E83E0981EA11CB11CE4CFDA
:100BC000FF90EF90DF90CF90BF90AF909F908F906D
:100BD00008952FB7F89460911405709115058091D0
:100BE0001605909117052FBF08958F929F92AF928F
:100BF000BF92CF92DF92EF92FF921F93CF93DF933A
:100C0000D82F0E94E905DD23F1F0C0904907D0906C
:100C10004A07E0904B07F0904C076C157D058E0558
:100C20009F0589F420916207E0916507F0916607BE
:100C300090E0921709F43CC180858F788F77808788
:100C40009F5F3996F6CF6093490770934A07809368
:100C50004B0790934C07C0E019E080916207C817DA
:100C600008F026C1EC2EF12CD1110EC0E0916307E3
:100C7000F0916407EE0DFF1D80819091670760E0A1
:100C8000911162E00E943805E0916307F0916407DA
:100C9000EE0DFF1D8081209167079091680729174D
:100CA00039F00E94E10421E0892B39F020E005C0F1
:100CB0000E94E10421E0892BC9F320936107E091B0
:100CC0006507F0916607C19FE00DF11D1124409169
:100CD000490750914A0760914B0770914C079091DA
:100CE0006107DD2309F4CCC080858F788F778087FA
:100CF00081FB222720F9291350C04083518362834E
:100D00007383808580FF1FC04091490750914A0737
:100D100060914B0770914C07C480D580E680F780C6
:100D20004C195D096E097F09C0905107D090520798
:100D3000E0905307F09054074C155D056E057F0554
:100D400010F08E7F8087808582FD55C082FD78C03F
:100D5000808583FF20C04091490750914A076091E8
:100D60004B0770914C07C480D580E680F7804C1902
:100D70005D096E097F09C0905D07D0905E07E09025
:100D80005F07F0906007877F80684C155D056E05F2
:100D90007F0508F08BC0CF5F60CFC080D180E2803C
:100DA000F3804A015B018C189D08AE08BF08C09013
:100DB0004D07D0904E07E0904F07F09050078C14ED
:100DC0009D04AE04BF0408F49CCF4483558366831E
:100DD000778390FB81F984608061808781FF91CF68
:100DE0008860982F9E7F80FF9160908790FD89CFCB
:100DF0009062908786CF81FDA9CF4091490750919D
:100E00004A0760914B0770914C07C480D580E680FB
:100E1000F7804C195D096E097F09C0905507D09085
:100E20005607E0905707F09058074C155D056E0582
:100E30007F0508F48BCF80858B7F8064808788CF87
:100E400081FF86CF8091490790914A07A0914B0777
:100E5000B0914C074481558166817781841B950B45
:100E6000A60BB70B4091590750915A0760915B0749
:100E700070915C0784179507A607B707E0F668CF5F
:100E800040835183628373834091490750914A079D
:100E900060914B0770914C07448355836683778339
:100EA00080858E7F90FB81F983788F77808773CFE1
:100EB000DF91CF911F91FF90EF90DF90CF90BF9087
:100EC000AF909F908F900895FC0120812EBD9B01D3
:100ED0002150310941F051810DB407FEFDCF4EB5CF
:100EE0005EBD4193F5CF61507109860F971F0DB418
:100EF00007FEFDCF2EB5FC0120830895E0910F057C
:100F0000F0911005808190910E05892B80830895C2
:100F1000E0910F05F0911005908180910E0580956C
:100F20008923808308958EBD00000DB407FEFDCF98
:100F30008EB50895AF92BF92CF92DF92EF92FF925B
:100F40000F931F93CF93DF9300D000D01F921F9277
:100F5000CDB7DEB78C017B016A018091CD0583336B
:100F6000E1F45801A40EB51EA016B10609F46FC035
:100F70000E94880780EF0E949307812F0E949307A9
:100F8000802F0E9493070F5F1F4FF70181917F0110
:100F90000E9493070E947E07E7CF5B01A40EB51E57
:100FA0008433C1F40E94880719830A838D2D8068D9
:100FB0008B83CC8264E070E0CE0101960E946407CE
:100FC000AE14BF0409F441C0F70181917F010E9472
:100FD0009307F6CF0E9488070F3F110509F028F408
:100FE00019820A8384E08B830CC017FD17C0198215
:100FF0000A8333E0169507953A95E1F7007E0C6079
:101000000B8386E0C816D104A0F5F701DE01149623
:10101000EA15FB0599F081918D93FACFC80126E07E
:10102000969587952A95E1F7807E19830A830115A5
:10103000104C10F48461D7CF8C61D5CFB6016D5FB1
:101040007F4FCE0101960E9464070E947E07C60171
:1010500028960FB6F894DEBF0FBECDBFDF91CF91BB
:101060001F910F91FF90EF90DF90CF90BF90AF90C6
:10107000089563E070E0CE0101960E946407F701D5
:1010800081917F010E949307AE14BF04C1F7DDCFA9
:10109000CF93DF931F92CDB7DEB7898341E050E055
:1010A000BE016F5F7F4F90E080E00E949A070F9033
:1010B000DF91CF91089590E02091CD05233339F44D
:1010C0000C96982F990F990F990F80E008954896E4
:1010D000F8CFDA01E0911205F0E0FE2FEE27E60FDF
:1010E000F71F90E0982F8827A901BD018E0F9F1F41
:1010F0000C949A07CF93DF931F921F92CDB7DEB760
:1011000079836A8322E030E0AE014F5F5F4F60E198
:1011100070E00E9469080F900F90DF91CF910895C1
:10112000CF93DF931F921F92CDB7DEB779836A8387
:1011300022E030E0AE014F5F5F4F64E070E00E945C
:1011400069080F900F90DF91CF910895CF93DF93AF
:101150001F92CDB7DEB72091120530E0322F222743
:10116000260F371F90E0982F8827498341E050E0F1
:10117000BE016F5F7F4F820F931F0E949A070F90EF
:10118000DF91CF910895CF93DF931F92CDB7DEB754
:101190006983DC01ED91FC910280F381E02D41E057
:1011A00050E0BE016F5F7F4F19950F90DF91CF9197
:1011B0000895CF93DF931F92CDB7DEB76983DC012B
:1011C000ED91FC910280F381E02D41E050E0BE0101
:1011D0006F5F7F4F19950F90DF91CF910895FC01BC
:1011E0009485FB018485981303C081E0983008F052
:1011F00080E00895CF93DF931F92CDB7DEB7698368
:10120000DC01ED91FC910280F381E02D41E050E0A2
:10121000BE016F5F7F4F19950F90DF91CF910895B9
:1012200044E050E0BC018FE090E00C949A070895F0
:10123000FF920F931F93CF93DF93EB01FC01178A6B
:10124000168A2A81211109C02B81211106C02C8107
:10125000211103C02D81222301F141155105E9F02F
:101260008A01FC01F08C80E591E00E941903AE0137
:101270004E5F5F4F24E030E06CE070E08F2D0E9405
:101280006908B8018F2D0E947A0881E090E0DF9113
:10129000CF911F910F91FF90089580E0F7CFFC014F
:1012A000848595850895FC018489958908952CE8A5
:1012B00032E0FC0131832083FB014089518962893E
:1012C0007389FC0142835383648375830895DC0131
:1012D000ED91FC91048CF58DE02D1994FC01808535
:1012E00084FD02C080E0089581FDFCCF83FB882748
:1012F00080F90895AC01FB019491DA01A75FB74F23
:101300009923A9F02D913C9111976F5F7F4F203D5C
:10131000F7E03F0760F4FA01E20FF31F91AFFB0122
:1013200094912F5F3F4F11963C932E93E9CF0895F0
:10133000FC01862F60837183428391E049274383B8
:1013400061E00C943805FC01768765870895DC011F
:10135000ED91FC91068CF78DE02D199591E0892790
:101360000895862F089581E08627089521E0FC01E5
:101370008485883008F020E0822F089590E080E096
:101380000895CF938091650790916607009711F0BB
:101390000E94C734C0E080916207C81760F4E091F2
:1013A0006307F0916407EC0FF11D60E080810E94FB
:1013B0003805CF5FF0CFCF910895CF93DF93EC0145
:1013C00088819981009711F00E94C7341982188290
:1013D0001D821C821B821A82DF91CF910895FC012D
:1013E00080819181009711F00C94C7340895FC011D
:1013F000448155818091BB079091BC078417950764
:1014000080F08091B7079091B807009751F0608104
:1014100071816115710529F00E94693621E0892BDF
:1014200009F020E0822F08950F931F93CF93DF934D
:10143000CDB7DEB78091620781110E94C10980910A
:101440006207882341F080916307909164070097B9
:1014500011F00E94C73483E18093620783E190E03A
:101460000E942B349093640780936307FE013B96A0
:1014700090E080E0A0916307B0916407A80FB91FC6
:1014800020812C93019632968331910599F78091B2
:1014900062078823D1F0082F10E029E0829FC00165
:1014A00011240E942B34FC011082118212821382BB
:1014B00014821582168217821086399601501109FE
:1014C00099F7809365079093660780E00E94F50581
:1014D000DF91CF911F910F910895DC018CE892E08C
:1014E0008D939D9384E0FB0101900D928A95E1F725
:1014F0000895AF92BF92CF92DF92EF92FF920F9337
:101500001F93CF93DF9300D01F92CDB7DEB78C012E
:101510006B017A018091CD058333E9F45B016801A9
:10152000C40ED51EC016D106A9F10E9488078FE00F
:101530000E949307812F0E949307802F0E94930798
:101540000F5F1F4F80E00E949307F50181935F01B9
:101550000E947E07E7CF843369F50E9488071983CC
:101560000A838F2D8F778B83EC8264E070E0CE014D
:1015700001960E946407A70170E060E0C6010E9426
:101580004736E114F10421F0B701C6010E94640757
:101590000E947E07C7010F900F900F900F90DF9170
:1015A000CF911F910F91FF90EF90DF90CF90BF9060
:1015B000AF9008950E9488070F3F110509F030F49D
:1015C00019820A831B8263E070E0D1CF17FD0BC044
:1015D00019820A8333E0169507953A95E1F7007E64
:1015E00008600B83F0CFC80126E0969587952A9571
:1015F000E1F7807E19830A830115104C18F480618D
:101600008B83E1CF8861FCCFCF93DF931F92CDB75F
:10161000DEB72091120530E0322F2227260F371F28
:1016200090E0982F882741E050E0BE016F5F7F4F28
:10163000820F931F0E94790A89810F90DF91CF91C9
:101640000895CF93C82F462F61E070E00E94A6084E
:1016500061E070E08C2F0E94040B8111F9CFCF91D3
:101660000895CF93C82F80E591E00E94190368E0A8
:1016700070E08C2FCF910C94210BCF93C82F80E575
:1016800091E00E94190360E170E08C2FCF910C94DF
:10169000210BCF93DF93EC01888D883020F40E94DA
:1016A0003D0B88E0888FDF91CF91089563E070E073
:1016B0000C94040BCF93C82F80E591E00E9419038E
:1016C0008C2FCF910C94560BEF92FF920F931F9398
:1016D000CF93DF937C018091CD05D4E0833309F073
:1016E000D8E00DEB15E0C0E0F801219131918F01B8
:1016F000F701848195812817390729F0CF5FDC1322
:10170000F3CF80E006C08C2F0E945A0B8431B1F7D2
:1017100081E0DF91CF911F910F91FF90EF9008959D
:10172000CF93DF93EC018C858830D0F40E945A0B64
:10173000843189F0882379F0883169F021E08C3197
:1017400059F4E881F9810084F185E02DCE011995E5
:1017500021E0892B09F420E0822FDF91CF910895B9
:1017600080E0FBCFCF92DF92EF92FF92CF93DF9397
:10177000EC018C85883068F40E94310B0E94E905E9
:101780006B017C018C850E945A0B811109C088E095
:101790008C87DF91CF91FF90EF90DF90CF900895ED
:1017A00061E070E080E090E00E94B6050E94E905EB
:1017B000AB01BC014C195D096E097F098D859E85C1
:1017C000B0E0A0E0481759076A077B07D8F28C857C
:1017D0000E943D0BDCCFCF93FC01C08D80E591E0F2
:1017E0000E94190360E270E08C2F0E94210B62E0DE
:1017F00070E08C2F0E94040B84FD16C062E070E044
:101800008C2F0E94040B83FF0AC048E162E070E065
:101810008C2F0E94A60880E090E0CF91089580E58B
:1018200091E00E941903E3CF40E162E070E08C2F69
:101830000E94A60881E0F0CFCF93DF931F92CDB72F
:10184000DEB741E050E0BE016F5F7F4F90E080E087
:101850000E94790A89810F90DF91CF910895CF93EB
:10186000DF93C4E1D0E00E941C0C882361F061E0AA
:1018700070E080E090E00E94B6052197A1F780E03B
:10188000DF91CF91089581E0FBCF1F93CF93DF933A
:101890001F921F92CDB7DEB760E372E080E090E068
:1018A0000E94B6051FB7F89480911105811127C0D9
:1018B000EEE6F3E08491E4EBF3E09491E82FF0E0BE
:1018C000EE0FFF1FE551FD4FA591B491EC91E92377
:1018D00021F461E085E30E940A0561E085E30E944E
:1018E00038058CB580618CBD8CB580648CBD61E0A1
:1018F00084E30E94380561E083E30E94380580910B
:1019000011058F5F809311051FBFE3E4F3E0E491BD
:10191000F0E0EE0FFF1FEB5FFC4F859194919093E9
:10192000100580930F05E9E8F3E0E491E0930E05DC
:1019300061E08AE00E9438050E947E0780E591E020
:101940000E94190384E38093CD0580E80E94480833
:101950000E942F0C8823C1F188E00E9448080E9451
:101960001C0C883089F580E10E9448080E941C0CFC
:10197000803151F580E00E9448080E941C0C182F0D
:10198000811122C041E050E0BE016F5F7F4F8FE1C7
:1019900090E00E94790A89818330B1F480E48093D9
:1019A000120542E06EE170E0812F0E94A60842E03D
:1019B0006FE170E0812F0E94A6081F5F183089F741
:1019C00081E08093CE056AC087E38093CD0580E8EF
:1019D0000E9448080E942F0C882329F188E00E9469
:1019E00048080E941C0C8830F1F480E10E944808ED
:1019F0000E941C0C182F8031B1F480E00E9448082E
:101A00000E941C0C81110FC041E050E0BE016F5FCD
:101A10007F4F89E390E00E94790A8981843019F42C
:101A200010931205CDCF83E38093CD0580E80E940B
:101A300048080E942F0C882371F180E10E94480819
:101A40000E941C0C803139F582E10E9448080E94F6
:101A50001C0C823101F580E00E9448080E941C0C99
:101A6000811119C084E08093120515E51A8341E0C5
:101A700050E0BE016E5F7F4F8BE190E00E949A07BD
:101A8000198341E050E0BE016F5F7F4F8AE190E033
:101A90000E949A0795CF1092CD0580E00F900F908D
:101AA000DF91CF911F910895CF92DF92EF92FF9235
:101AB000CF93DF93CDB7DEB7C254D1090FB6F894F8
:101AC000DEBF0FBECDBFFC014281538164817581B1
:101AD00023964CAF5DAF6EAF7FAF239781E0239627
:101AE0008FAF23972396CCACDDACEEACFFAC239745
:101AF000CBAADCAAEDAAFEAA4DA75EA76FA778AB7A
:101B000088ABCDA4DEA4EFA4F8A8CFA2D8A6E9A6FE
:101B1000FAA68EABCBA8DCA8EDA8FEA8C9A2DAA2D3
:101B2000EBA2FCA22CE832E03C8B2B8B9FEF9D8B31
:101B30009E8B9F8B188E3E872D878AA7CFA0D8A417
:101B4000E9A4FAA4CF86D88AE98AFA8A8CA389A163
:101B50009AA1ABA1BCA189879A87AB87BC873A833E
:101B600029834B835C836D837E838091CE0588239C
:101B7000F1F180E591E00E94190346E050E062E057
:101B800072E089E090E00E949A07CE0103960E94DD
:101B9000100944E050E0BE01615F7F4F81E090E0BA
:101BA0000E949A0744E050E0BE016B5E7F4F85E0E3
:101BB00090E00E949A0781E08C8789859A85AB85A1
:101BC000BC8580938C0690938D06A0938E06B0936F
:101BD0008F06CE5BDF4F0FB6F894DEBF0FBECDBFD2
:101BE000DF91CF91FF90EF90DF90CF9008950E940A
:101BF000450C882371F3BDCF1F93CF93DF931F92C2
:101C0000CDB7DEB7182F80E591E00E941903812F30
:101C10000E945B0827E0129FF0011124EB57FA4F56
:101C200022813381377041E050E0BE016F5F7F4F0A
:101C3000820F931F0E94790A89810F90DF91CF91C3
:101C40001F910895FC01808D883040F4218D328DE4
:101C5000232B21F00E94FC0D90E008958FEF9FEF61
:101C60000895CF93DF93FC012485283028F08FEF6F
:101C70009FEFDF91CF910895EC010190F081E02D6D
:101C80000084F185E02D1995892B89F38C850E94BC
:101C9000FC0D90E0EECFDA01E0911205F0E0FE2FAE
:101CA000EE27E60FF71F90E0982F8827A901BD01C6
:101CB0008E0F9F1F0C94790A8F929F92AF92BF92C2
:101CC000CF92DF92EF92FF920F931F93CF93DF9308
:101CD000CDB7DEB760970FB6F894DEBF0FBECDBFAD
:101CE0007C019091CD05911115C018E0812F60966F
:101CF0000FB6F894DEBF0FBECDBFDF91CF911F911D
:101D00000F91FF90EF90DF90CF90BF90AF909F909A
:101D10008F90089508E0933309F404E06B0180E5A7
:101D200091E00E9419039E012F5F3F4F5901490125
:101D300010E0812F0E94560BF40181934F018823FC
:101D4000C1F01F5F0113F5CF00E0F50181915F0144
:101D50008D3149F0883139F08A51823020F00F5F9F
:101D60001013F3CFC2CF60E170E0802F0E94210BEF
:101D7000102FA12EB12CF501EE0FFF1FE354FA4FE7
:101D80001182108283EE93E00197F1F742E870E050
:101D900060E0812F0E94A6084FEF62E070E0812F83
:101DA0000E94A608B601C114D10491F480910002EA
:101DB0009091010201968115F0EC9F0708F45CC038
:101DC00090930102809300026091000270910102E1
:101DD000812F0E94900886E0E2E1F2E0DE01199690
:101DE00001900D928A95E1F7F70183818F778C87B7
:101DF00084818D8785818E87A7014E5F5F4F24E0A8
:101E000030E06CE070E0812F0E946908B601812FFC
:101E10000E947A0826E030E0AE01475F5F4F66E03F
:101E200070E0812F0E94690861E070E0812F0E94BC
:101E3000210B27E02A9DC0012B9D900D11249C01B0
:101E40002B573A4F7901F9011182108222E030E0DC
:101E5000AE01415F5F4F68E270E0812F0E944B0E40
:101E60008F859889982789279827F70193838283FC
:101E70001682158214823ACF80E090ECA1CFCF92E7
:101E8000DF92EF92FF920F931F93CF93DF9300D0D7
:101E900000D0CDB7DEB78C016B017A01FC01808DDB
:101EA000883010F40E943D0B8CE892E09A8389837D
:101EB000F60182819381A481B5818B839C83AD835C
:101EC000BE83B701CE0101960E945C0EF801808F9F
:101ED0008830A0F4F586E486128E118E81E0269675
:101EE0000FB6F894DEBF0FBECDBFDF91CF911F912B
:101EF0000F91FF90EF90DF90CF90089580E0EFCFAB
:101F00007F928F929F92AF92BF92CF92DF92EF9289
:101F1000FF920F931F93CF93DF931F921F92CDB722
:101F2000DEB7782E8B014A01590122E030E0AE0184
:101F30004F5F5F4F64E270E00E944B0EE980FA80D1
:101F4000FE24EF24FE24E00EF11E9701377040912D
:101F5000CD05072D10E0433309F042C0085F1F4F45
:101F6000102F0027110F110F110FC901800F911FA2
:101F70004733C9F1A9014A0D5B1D4130584098F122
:101F800060E078E06B01C21AD30AA601B4010E9496
:101F90009A07A5014C195D09B4016C0D7D1DC8019E
:101FA0000E949A07EA0CFB1CF982EA8222E030E0E8
:101FB000AE014F5F5F4F64E270E0872D0E946908B9
:101FC0000F900F90DF91CF911F910F91FF90EF90A5
:101FD000DF90CF90BF90AF909F908F907F900895AB
:101FE000005F1F4FBDCFA501B401DACFEF92FF9282
:101FF0001F93CF93DF931F921F92CDB7DEB7182F99
:1020000022E030E0AE014F5F5F4F60E270E00E947F
:102010004B0EE980FA80FE24EF24FE2422E030E01B
:10202000AE014F5F5F4F60E270E0812F0E944B0E68
:1020300089819A81982789279827E816F90689F4D3
:1020400087E0189FF0011124EB57FA4FF582E482E4
:10205000C7010F900F90DF91CF911F91FF90EF90EC
:1020600008957C01DBCF1F93CF93DF93182F80E57A
:1020700091E00E941903812F0E94F60FEC01812F3D
:102080000E94560B873121F08C3111F0D0E0C0E076
:10209000CE01DF91CF911F910895CF93DF93EC0193
:1020A0008C85883060F40E945A0B873111F08C3196
:1020B00031F48C850E9433108115984088F3DF91AC
:1020C000CF910895FC018485883010F40C9433106E
:1020D00090E080E00895CF92DF92EF92FF921F93FD
:1020E000CF93DF93182F7B01EA014130584010F065
:1020F000C0E0D8E080E591E00E941903812F0E94A2
:10210000F60F6C01812F0E94560B873111F08C3134
:1021100021F5CC16DD0670F380E591E00E941903ED
:102120009E01A70170E060E0812F0E94800F60E2B5
:1021300070E0812F0E94210B62E070E0812F0E94ED
:10214000040B84FD0DC0812F0E94560B8823B9F02B
:1021500080E591E00E941903EFCFD0E0C0E0DCCF32
:1021600040E162E070E0812F0E94A608CE01DF917D
:10217000CF911F91FF90EF90DF90CF900895D0E026
:10218000C0E0F4CF0F931F93CF93DF938C01EA014C
:10219000FC018485883048F40E946B10892B39F447
:1021A00081E090E0F80193838283D0E0C0E0CE012B
:1021B000DF91CF911F910F9108959F92AF92BF929F
:1021C000CF92DF92EF92FF920F931F93CF93DF9303
:1021D0008C015B01942EE52EFC01C688D788F08C1B
:1021E00080E591E00E9419038F2D0E94F60FC92D02
:1021F000DE2D8C179D0708F4EC019E01A501B601A8
:102200008F2D0E94800FF801868997898C0F9D1F62
:10221000978B868BCE01DF91CF911F910F91FF900D
:10222000EF90DF90CF90BF90AF909F900895FF9276
:102230000F931F93CF93DF931F921F92CDB7DEB7FB
:10224000F82E22E030E0AE014F5F5F4F66E270E0B3
:102250000E944B0E09811A8110270127102722E0C6
:1022600030E0AE014F5F5F4F66E270E08F2D0E945D
:102270004B0E89819A819827892798270817190773
:1022800049F4C8010F900F90DF91CF911F910F91EA
:10229000FF9008958C01E3CF1F93CF93DF93182F06
:1022A00087E0189FE0011124CB57DA4F888199818C
:1022B000009761F480E591E00E941903812F0E944C
:1022C00017112E81821B910999838883DF91CF9109
:1022D0001F9108959F92AF92BF92CF92DF92EF929B
:1022E000FF920F931F93CF93DF93EC017B018091BB
:1022F000CD05811121C01B821A8288EE93E0A0E0F7
:10230000B0E08C839D83AE83BF8388E592E09983A0
:10231000888388E08C8788EE93E09E878D87CE0146
:10232000DF91CF911F910F91FF90EF90DF90CF90B1
:10233000BF90AF909F90089534E0932E833311F0B7
:1023400028E0922E8DEBC82E85E0D82E10E098E084
:10235000B92EA12CD6012D913D916D01F7018481FB
:1023600095812817390791F4812F0E945A0B082F65
:10237000873111F08C3139F5812F0E944C11892B56
:1023800059F50C3119F4812F0E94310B1F5F911206
:10239000E1CFA11008C0D701ED91FC910084F18537
:1023A000E02DC70119951B821A8288EE93E0A0E008
:1023B000B0E08C839D83AE83BF8388E592E09983F0
:1023C0008883BC86A8CF843149F08111DFCFF60124
:1023D000329711821082DACFB12ED8CFAA24A394DB
:1023E000D5CF8F929F92AF92BF92CF92DF92EF9212
:1023F000FF920F931F93CF93DF93CDB7DEB72F9745
:102400000FB6F894DEBF0FBECDBF5C014B017A0161
:102410008091CD058823C9F104E0833309F008E0F9
:10242000B501CE0101960E946A118DEBC82E85E0A0
:10243000D82E10E0F601219131916F01F5018481D0
:1024400095812817390751F4812F0E945A0B873143
:1024500029F4A701B401812F0E946B101F5F0113A3
:10246000E9CFC7012F960FB6F894DEBF0FBECDBFE0
:10247000DF91CF911F910F91FF90EF90DF90CF9060
:10248000BF90AF909F908F900895F12CE12CE9CFF1
:10249000FC018485883010F40C944C1190E080E0AD
:1024A00008954F925F927F928F929F92AF92BF92C8
:1024B000CF92DF92EF92FF920F931F93CF93DF9310
:1024C0001F921F92CDB7DEB7782E6B014A01A82E5E
:1024D000B12C27E0829FC0011124FC01EB57FA4F79
:1024E0007F010081118180E591E00E9419030815A8
:1024F000190554F4872D0E941711F70126818C01CC
:10250000021B1109118300830115110519F5872D8F
:102510000E94560B843159F0882349F001E010E005
:102520008C3111F410E000E0119501951109C801FA
:102530000F900F90DF91CF911F910F91FF90EF902F
:10254000DF90CF90BF90AF909F908F907F905F90E3
:102550004F900895801691060CF4840187E08A9DBF
:10256000F0018B9DF00D1124EB57FA4FE280F380C0
:10257000C114D10451F12701F7E05F22872D0E9499
:102580005B08840D951D2091CD05273309F453C0B8
:102590009801240D351D2130384008F44CC020E04E
:1025A00038E0490184189508A401B6010E94790A0F
:1025B0002601480C591C6801C818D908872D0E94AB
:1025C0005B08A601B2010E94790AE00EF11E87E0C5
:1025D0008A9DF0018B9DF00D1124EB57FA4FF38289
:1025E000E28220813181201B310B3183208386815F
:1025F000800F912F911D8A3F910510F4232BF1F448
:1026000087E08A9DF0018B9DF00D1124EB57FA4F66
:102610001682F982EA8222E030E0AE014F5F5F4F1E
:1026200068E270E0872D0E94690860E470E0872D01
:102630000E94210B7CCFA801B601C5CF868377CF3E
:10264000CF93DF93FC01218D328D2115310529F4C3
:102650008FEF9FEFDF91CF910895EC01808D4217AE
:10266000530708F0A9010E9451121816190684F7A1
:10267000298D3A8D281B390B3A8F298FEBCF0F9379
:102680001F93CF93DF931F92CDB7DEB7FC01218D4F
:10269000328D232B41F48FEF9FEF0F90DF91CF917D
:1026A0001F910F9108958C0141E050E0BE016F5FD2
:1026B0007F4FFC01808D0E945112181619065CF79D
:1026C000F801818D928D0197928F818F898190E0A1
:1026D000E4CF0F931F93CF93DF9300D000D01F92CE
:1026E0001F92CDB7DEB78C01D80159964D915C9100
:1026F0005A974115510551F0ED91FC91048CF58DDF
:10270000E02D70E060E0C8011995EECFF801808DF2
:102710000E944C11892BB1F148E050E0BE016F5F7F
:102720007F4FD80158968C910E94511218161906A5
:10273000F4F4D801509684E0FE01319601900D9298
:102740008A95E1F78D8190E0982F88272E81820F5E
:10275000911DF801958B848B8F81282F30E0322FCB
:1027600022278885820F932F911D928F818F289623
:102770000FB6F894DEBF0FBECDBFDF91CF911F9192
:102780000F91089590E080E0F2CFCF93DF931F92F6
:10279000CDB7DEB741E050E0BE016F5F7F4FFC0177
:1027A00084850E9451121816190634F4898190E02C
:1027B0000F90DF91CF9108958FEF9FEFF9CFFC013C
:1027C0008485883010F40C94511290E080E00895D4
:1027D0008F929F92AF92BF92CF92DF92EF92FF9231
:1027E0000F931F93CF93DF9300D000D000D01F92A0
:1027F000CDB7DEB79091CD05911115C018E0812FAE
:102800002A960FB6F894DEBF0FBECDBFDF91CF91F1
:102810001F910F91FF90EF90DF90CF90BF90AF90FE
:102820009F908F90089528E0F22E933311F494E056
:10283000F92E6B01082F80E591E00E9419039E019B
:102840002F5F3F4F5901490110E0812F0E94560B25
:10285000F40181934F018823C1F01F5FF112F5CF7E
:10286000F12CF50191915F019D3149F0983139F0DA
:102870009A51923020F0F3941F11F3CFBFCF60E153
:1028800070E08F2D0E94210B1F2DE12EF12CF701FE
:10289000EE0FFF1FE354FA4F1182108283EE93E094
:1028A0000197F1F7402F70E060E0812F0E94A608A9
:1028B0004FEF62E070E0812F0E94A608B601CD289C
:1028C00089F4809100029091010201968115F0EC4B
:1028D0009F0798F19093010280930002609100029B
:1028E00070910102812F0E94900861E070E0812FB9
:1028F0000E94210B27E02E9DC0012F9D900D1124D9
:102900009C012B573A4F7901F9011182108222E084
:1029100030E0AE01475F5F4F68E270E0812F0E94B8
:102920004B0E89859A85982789279827F7019383E5
:10293000828316821582148262CF80E090ECCACF27
:102940000F931F93CF93DF93EC018B01888D883019
:1029500010F40E943D0BB80182E00E94E813888FBA
:10296000883050F41D870C871A8E198E81E0DF9114
:10297000CF911F910F91089580E0F9CF4F925F9210
:102980006F927F928F929F92AF92BF92CF92DF927F
:10299000EF92FF920F931F93CF93DF93CDB7DEB7E4
:1029A00063970FB6F894DEBF0FBECDBF7C016B01FD
:1029B0003A01FB0120E090E080E06AE031913323AE
:1029C00009F461C040ED430F4A3008F04DC0689FE4
:1029D000A001699F500D1124CA01C097830F911D5A
:1029E00037FD9A958F3F910549F340F3F7014281F6
:1029F0005381648175818091980690919906A09188
:102A00009A06B0919B06481759076A077B0709F495
:102A10000DC28701085F1F4F0E94E9056F7077277D
:102A20007C5FC8010E94A014813009F004C28CE8C8
:102A300092E09A838983F70182819381A481B58191
:102A40008B839C83AD83BE8345E350E0BE016F5F03
:102A50007F4FC8010E941809892BA9F5D12CC12CE0
:102A6000C8010E94490B17C03E3209F0BFCF233086
:102A700009F4BCCFD301A20FB11D12968C932F5F26
:102A800090E080E09BCF233009F0B0CFF301858345
:102A9000CC24C394D12CC60163960FB6F894DEBF44
:102AA0000FBECDBFDF91CF911F910F91FF90EF909F
:102AB000DF90CF90BF90AF909F908F907F906F905E
:102AC0005F904F9008950E94E905F7017783668330
:102AD00042E050E0B7016A5F7F4FC8010E94DD10FD
:102AE00081E090E09A83898342E050E0BE016F5F0D
:102AF0007F4FC8010E94DD1080E091E09A838983B6
:102B000042E050E0BE016F5F7F4FC8010E94DD10C0
:102B10001A82198242E050E0BE016F5F7F4FC80108
:102B20000E94DD1042E050E0BE016F5F7F4FC801A0
:102B30000E94DD1042E050E0BE016F5F7F4FC80190
:102B40000E94DD105601F6018081882301F16501A4
:102B5000F60181912F01882311F08E32B1F44601E4
:102B60008A189B081814190474F48D8641E050E00B
:102B7000BE01635F7F4FC8010E94DD10A401B50153
:102B8000C8010E94DD105201DECF6201E1CF1D8637
:102B900041E050E0BE01635F7F4FC8010E94DD103D
:102BA000C12CDD24D394DA82C98242E050E0BE0118
:102BB0006F5F7F4FC8010E94DD10DA82C98242E058
:102BC00050E0BE016F5F7F4FC8010E94DD10C80159
:102BD0000E94EB0B892B09F441CFF3E0AF2EB12C0F
:102BE000230122E0420E511CD4C0F70142815381DF
:102BF00064817581808D918DA28DB38D48175907A1
:102C00006A077B0709F008C1848D958DC59709F087
:102C100003C181A192A15DEFC52EDD24DA940C974A
:102C20000CF4ADC04CE050E0BE016F5F7F4FC801B7
:102C30000E9420138B819C819827892798279A8B43
:102C4000898BF7014681578129813A8142175307C1
:102C500009F0E7C097FFE5C08F7092703BEFC32E7D
:102C6000DD24DA94892B09F08AC06F807884762479
:102C7000672476242AEFC22EDD24DA9461147104CD
:102C800009F47DC0D12CC12C8D819E819827892784
:102C90009827C816D906F8F441E050E0BE01635FFA
:102CA0007F4FC8010E9420134D85442331F050E02E
:102CB00070E060E0C8010E9420138D858111ECCF87
:102CC00044E050E070E060E0C8010E942013FFEF94
:102CD000CF1ADF0AD9CF912C812C41E050E0BE0100
:102CE0006D5E7F4FC8010E9420134B89842F807C2A
:102CF00009F06CC0442331F050E070E060E0C8019E
:102D00000E9420138B898111E8CF42E050E0BE0180
:102D1000615F7F4FC8010E94201342E050E0BE0176
:102D2000635F7F4FC8010E94201344E050E070E0D1
:102D300060E0C8010E94201342E050E0BE016F5ED7
:102D40007F4FC8010E9420138F85988949895A892D
:102D50008115914009F043C0CD84DE84DC24CD246C
:102D6000DC2481E0C816D104D1F54115544009F0A6
:102D70004AC044E050E0B201C8010E94201321E0A3
:102D8000A21AB10809F46CCEFFEFCF16DF0609F0E6
:102D900067CE0E94E9053B014C01C8010E946913FE
:102DA000181619060CF421CF0E94E9056619770957
:102DB00088099909693873418105910548F562E3ED
:102DC00070E080E090E00E94B605E7CF41E050E07F
:102DD00070E060E0C8010E9420131B8A93CF542743
:102DE0004527542770E060E0C8010E942013FFEFE0
:102DF0008F1A9F0A6814790409F06FCF96EFC92ED5
:102E0000DD24DA94BCCFE7EFCE2EDD24DA94B7CF01
:102E1000CC24CA94DC2CB3CF6EEFC62EDD24DA941A
:102E2000AECF4CEFC42EDD24DA94A9CF8EEFC82E9E
:102E3000DD24DA9430CED12CC12C2DCECF92DF926E
:102E4000EF92FF920F931F93CF93DF93CDB7DEB72F
:102E5000AF970FB6F894DEBF0FBECDBF7C016A01FD
:102E60000CE812E01A8309831C861B8688EE93E027
:102E7000A0E0B0E08D879E87AF87B88B8CE192E0B1
:102E80009A878987188F0F8B198E1A8E1B8E1C8E2E
:102E900088E089A31BA70AA71CA61DA61EA61FA61D
:102EA00080918C0690918D06A0918E06B0918F0630
:102EB0008EA39FA3A8A7B9A78B839C83AD83BE8352
:102EC00018861F82AE01465D5F4FCE0101960E94BB
:102ED000BE1481309105B1F4D701ED91FC910488C5
:102EE000F589E02D1DA30CA38CA59DA5AEA5BFA5BE
:102EF0008EA39FA3A8A7B9A7A601BE016C5D7F4FB3
:102F0000C7011995AF960FB6F894DEBF0FBECDBFBF
:102F1000DF91CF911F910F91FF90EF90DF90CF90B5
:102F20000895CF92DF92EF92FF920F931F93CF936A
:102F3000DF93CDB7DEB7AF970FB6F894DEBF0FBE05
:102F4000CDBF8C016B017A018CE892E09A83898372
:102F50001B821C821D821E821C861B8648EE53E04B
:102F600060E070E04D875E876F87788B2CE132E000
:102F70003A872987988F8F8B198E1A8E1B8E1C8EFD
:102F800028E029A39BA78AA71CA61DA61EA61FA6EC
:102F9000D8011C968C91883060F40E945A0B8823CB
:102FA00021F0F80184850E94310B88E0D8011C963D
:102FB0008C9380918C0690918D06A0918E06B09195
:102FC0008F068EA39FA3A8A7B9A78B839C83AD83ED
:102FD000BE8318861F82AE01465D5F4FB601CE01EB
:102FE00001960E94BE140097C1F0D801ED91FC91AA
:102FF0000684F785E02D8CE892E09DA38CA38CA538
:103000009DA5AEA5BFA58EA39FA3A8A7B9A7A701FD
:10301000BE016C5D7F4FC8011995AF960FB6F8944D
:10302000DEBF0FBECDBFDF91CF911F910F91FF90FB
:10303000EF90DF90CF9008950F931F93CF938C0163
:10304000FC016481758181E20E94E813C82F8830F9
:10305000F8F480E591E00E9419038C2F0E94560B32
:10306000833131F08C2FCF911F910F910C94310B44
:1030700062E070E08C2F0E94210BF8018481958121
:10308000EC2FF0E0EE0FFF1FE354FA4F91838083A3
:10309000CF911F910F910895CF92DF92EF92FF92FF
:1030A0001F93CF93DF93EC017B016A018C858830FD
:1030B00048F40E945A0B882319F08C850E94310B2A
:1030C00088E08C87F70182819381A481B581009784
:1030D000A105B10551F490E080E0DF91CF911F91FF
:1030E000FF90EF90DF90CF9008958F3F9F4FAF4FAD
:1030F000BF4F89F370E060E081E20E94E813182F6F
:103100008C87883040F780E591E00E941903A70181
:103110004E5F5F4F24E030E06CE070E0812F0E9452
:103120006908B601812F0E947A0864E070E0812F5F
:103130000E94210B0E94E9056B017C018C850E9495
:103140005A0B873111F18C3101F1882321F20E9451
:10315000E905AB01BC014C195D096E097F098D853C
:103160009E85B0E0A0E084179507A607B70738F062
:1031700061E070E080E090E00E94B605DFCF8C85D2
:103180000E943D0B88E08C87A6CF81E090E0A5CF20
:103190000F931F93CF93DF931F921F92CDB7DEB78C
:1031A000FC0124852830E0F48C0180E591E00E9448
:1031B000190322E030E0AE014F5F5F4F60E170E045
:1031C000F80184850E944B0E89819A81982789276E
:1031D00098270F900F90DF91CF911F910F91089535
:1031E00090E080E0F6CFEF92FF920F931F93CF9382
:1031F000DF9300D01F92CDB7DEB78C017B01FB01BE
:1032000084858830A8F08CE892E0F801918380836F
:103210001282138214821582C8010F900F900F90B2
:103220000F90DF91CF911F910F91FF90EF90089534
:1032300080E591E00E94190324E030E0AE014F5F89
:103240005F4F6CE070E0F70184850E944B0EBE0179
:103250006F5F7F4FC8010E946D0ADECF0F931F93EF
:10326000CF93DF931F921F92CDB7DEB7FC01248569
:103270002830E0F48C0180E591E00E94190322E0FF
:1032800030E0AE014F5F5F4F64E070E0F80184858D
:103290000E944B0E89819A819827892798270F9041
:1032A0000F90DF91CF911F910F91089590E080E0F2
:1032B000F6CF0F931F93CF93DF938C01EB01FC01AB
:1032C000808191810097E1F06881798161157105B4
:1032D000A9F0428153812C813D814217530770F040
:1032E0000E9462368C819D81F801958384831D82C2
:1032F0001C82DF91CF911F910F9108950E94C734D6
:1033000088819981F801918380838A819B8193834D
:1033100082838C819D8195838483198218821B828C
:103320001A82E5CF7F928F929F92AF92BF92CF92F7
:10333000DF92EF92FF920F931F93CF93DF93CDB75E
:10334000DEB7A6970FB6F894DEBF0FBECDBF8C01D7
:10335000762E942E852E20E2A22ECE0101967C019F
:10336000DC01EA2D1D92EA95E9F76801F3E4CF0E3E
:10337000D11C8CE892E09AA389A38FEF8BA38CA336
:103380008DA38EA343E450E0BE016F5D7F4FC60165
:103390000E941809019609F4BFC081E089838A83DD
:1033A00086E0B82EBB821C82D80114966D917D9167
:1033B0008D919C9117970E9424346D837E838F8317
:1033C000988789869A8680E890E09C878B874CE175
:1033D00050E0B701C6010E94DD10FE0137968AE178
:1033E000DF011D928A95E9F74801B8E08B0E911C28
:1033F000F401D70101900D92BA94E1F740E150E059
:10340000B701C6010E94DD10F7011192AA94E9F7F5
:1034100096E0A92EB12C40E250E0B701C6010E940F
:10342000DD10F1E0AF1AB108B1F783E6898392E8C5
:103430009A8393E59B838C8385E38D8381E08E83E0
:103440007F829DE3988797E099878A8786E0F401D9
:10345000DE011B9601900D928A95E1F78CE0898B35
:103460008A8B6EE972E0CE0143960E946236D801E3
:103470001B966C91CE0149960E941C03F80164854D
:10348000CE014B960E941C03D8011D966C91CE0173
:103490004D960E941C034EE150E0B701C6010E9408
:1034A000DD10B3E07B121EC082E3898384E08A834F
:1034B000F80196859B8397859C8390899D8391894C
:1034C0009E8396E39F838887828D8987838D8A87F1
:1034D000848D8B87858D8C874CE050E0B701C601C9
:1034E0000E94DD1087E3898386E08A8391E09B83D5
:1034F00093E09C838D838FE08E838AE38F838BE3BD
:1035000088878FEF898749E050E0B701C6010E94A4
:10351000DD10C6010E94EB0BA6960FB6F894DEBF35
:103520000FBECDBFDF91CF911F910F91FF90EF9014
:10353000DF90CF90BF90AF909F908F907F90089535
:10354000FB0101900020E9F73197AF01461B570BB3
:10355000DC01ED91FC910280F381E02D1994CF9371
:10356000DF93FC0144815581608171818FEC95E08E
:103570000E944603EC0165EA72E08FEC95E00E9440
:10358000A01A8C0F9D1FDF91CF9108958F929F926B
:10359000AF92BF92EF92FF920F931F93CF93DF935F
:1035A000CDB7DEB7A1970FB6F894DEBF0FBECDBF83
:1035B0007C01FA01CB0119A2223008F42AE08E0125
:1035C0000F5D1F4F822E912CB12CA12CBF01A501A4
:1035D00094010E94D733F901CA016A300CF5605D8D
:1035E000D8016E938D01232B242B252B79F790E0A6
:1035F00080E0109721F0BD01C7010E94A01AA1969A
:103600000FB6F894DEBF0FBECDBFDF91CF911F91F3
:103610000F91FF90EF90BF90AF909F908F90089583
:10362000695CDECF8F929F92AF92BF92CF92DF9272
:10363000EF92FF920F931F93CF93DF937C01EB01E7
:103640006C0182E0C80ED11C4701E5E08E0E911C92
:1036500010E000E0F60141916F0150E070E060E0A1
:103660002AE0CE010E94C61A5C01E881F98101902E
:10367000F081E02D6EE2CE0119958A0D9B1D080F99
:10368000191FC814D90431F7F701458150E070E0E3
:1036900060E02AE0CE010E94C61A800F911FDF91E0
:1036A000CF911F910F91FF90EF90DF90CF90BF903F
:1036B000AF909F908F9008951F93CF93DF934423F3
:1036C00099F0FC01E75FF74F20813181203D57E001
:1036D000350750F4DC01A20FB31F52E2D9965C9378
:1036E0002F5F3F4F31832083EB01DC01A75FB74F92
:1036F0001CE5FB0101900020E9F73197E61BF70B71
:103700009E01261B370B2E173F0748F52D913C9144
:103710001197203D57E03507B8F5442391F05881C3
:10372000523211F05C3569F42F3C57E0350761F1F6
:10373000FC01E20FF31F11AF2F5F3F4F11963C9337
:103740002E932D913C9111975991FC01E20FF31F9B
:1037500051AF2F5F3F4F11963C932E93CACF442316
:1037600099F0FC01E75FF74F20813181203DA7E010
:103770003A0750F4820F931F42E2DC01D9964C9332
:103780002F5F3F4F31832083DF91CF911F910895A9
:10379000CF93DF93EC0164EE72E00E947A096FA18F
:1037A00078A541E0CE010E945C1B69ED72E0CE017C
:1037B0000E947A09BE016D5E7F4F41E0CE010E94FA
:1037C0005C1B6AEC72E0CE010E947A0941E068EA73
:1037D00072E0CE010E945C1B65EB72E0CE01DF91CE
:1037E000CF910C947A090F931F93CF93DF938C01A1
:1037F000C62FD0E0CC0FDD1FC00FD11FFE01E75D4B
:10380000F74F6081718141E0C8010E945C1B62EB4F
:1038100072E0C8010E947A09CB5ED74F88819981F6
:10382000DC01ED91FC910190F081E02DB801DF9178
:10383000CF911F910F911994EF92FF921F93CF9305
:10384000DF93EC018885853729F060E174E0CE01D3
:103850000E947A0962EA72E0CE010E947A0910E0C1
:103860007E018CEEE81A87EFF80AF70180811817BD
:1038700090F4612FCE010E94F31BF70180818150EB
:10388000990B181719062CF46FE972E0CE010E940B
:103890007A091F5FEACF6BE972E0CE010E947A09D4
:1038A000CE010E94C81B68E972E0CE01DF91CF9182
:1038B0001F91FF90EF900C947A09FC018081918117
:1038C000009711F00C94283360E070E0CB0108956C
:1038D0001F93CF93DF93EC01CB011881FB0124816F
:1038E0003581232B71F4812F0E94E10431E020E027
:1038F000892B09F430E0832F922FDF91CF911F9114
:1039000008950E945D1C21E0672B09F420E0622FDE
:10391000812F0E940A058881E7CF0F931F93CF93D1
:10392000DF93EC0188819981009759F02A813B81CE
:103930002617370730F081E0DF91CF911F910F916B
:1039400008958B016F5F7F4F0E945035009759F0AB
:10395000998388831B830A832C813D81232B59F70C
:10396000FC011082E8CF80E0E7CFEF92FF920F9347
:103970001F93CF93DF938C017B01FB01019000200B
:10398000E9F73197E61BF70BD1F0DC011496CD91E6
:10399000DC91CE0FDF1FBE010E948D1C8823B9F081
:1039A000F8012081318184819581B701820F931FB5
:1039B0000E946236D8011596DC93CE931497C80105
:1039C000DF91CF911F910F91FF90EF900895C80163
:1039D0000E94DD09F4CFEF92FF920F931F93CF93D4
:1039E000DF93EC017B018A01BA010E948D1C8111D9
:1039F0000BC0CE010E94DD09CE01DF91CF911F9156
:103A00000F91FF90EF9008951D830C83B70188817B
:103A100099810E946236F0CFFB0101900020E9F706
:103A20003197AF01461B570B0C94EB1CCF93DF93E0
:103A3000CDB7DEB72F970FB6F894DEBF0FBECDBF60
:103A40001B861A861D861C861F861E864AE0BE01BE
:103A50006F5F7F4F90E00E946F33BE016F5F7F4FBB
:103A6000CE010A960E940C1D6A857B8540E085EB9D
:103A700097E00E945C1BCE010A960E94EF092F96E8
:103A80000FB6F894DEBF0FBECDBFDF91CF91089582
:103A9000CF93DF93CDB7DEB767970FB6F894DEBF4D
:103AA0000FBECDBF1B8A1A8A1D8A1C8A1F8A1E8AD6
:103AB0004AE0BE016F5F7F4F0E946F33BE016F5FB0
:103AC0007F4FCE0142960E940C1D6A897B8940E09F
:103AD00085EB97E00E945C1BCE0142960E94EF09A5
:103AE00067960FB6F894DEBF0FBECDBFDF91CF91C2
:103AF0000895CF93DF93EC01FB018617970749F0F8
:103B0000608171816115710541F0448155810E9488
:103B1000EB1CCE01DF91CF9108950E94DD09F9CF12
:103B2000FC011182108213821282158214820C947D
:103B3000791D0F931F93CF93DF9300D000D0CDB7A3
:103B4000DEB7BC01CE0101960E94901DBE016F5FE1
:103B50007F4F81EB97E00E94681C8C01CE0101969B
:103B60000E94EF09C80126960FB6F894DEBF0FBE7B
:103B7000CDBFDF91CF911F910F9108950F931F93A8
:103B8000CF93DF9300D000D0CDB7DEB7BC01CE011C
:103B900001960E94901DBE016F5F7F4F8DEA97E0F6
:103BA0000E94681C8C01CE0101960E94EF09C80199
:103BB00026960FB6F894DEBF0FBECDBFDF91CF9132
:103BC0001F910F9108950F931F93CF93DF9300D010
:103BD00000D0CDB7DEB7BC01CE0101960E94901D8A
:103BE000BE016F5F7F4F89EA97E00E94681C8C01DD
:103BF000CE0101960E94EF09C80126960FB6F894EF
:103C0000DEBF0FBECDBFDF91CF911F910F91089501
:103C10000F931F93CF93DF9300D000D0CDB7DEB7C3
:103C2000BC01CE0101960E94901DBE016F5F7F4FC7
:103C300085EA97E00E94681C8C01CE0101960E94E3
:103C4000EF09C80126960FB6F894DEBF0FBECDBFB0
:103C5000DF91CF911F910F9108950F931F93CF93F1
:103C6000DF9300D000D0CDB7DEB7BC01CE01019606
:103C70000E94901DBE016F5F7F4F81EA97E00E9416
:103C8000681C8C01CE0101960E94EF09C80126969E
:103C90000FB6F894DEBF0FBECDBFDF91CF911F915D
:103CA0000F9108950F931F93CF93DF9300D000D00F
:103CB000CDB7DEB7BC01CE0101960E94901DBE01BA
:103CC0006F5F7F4F8DE997E00E94681C8C01CE01E9
:103CD00001960E94EF09C80126960FB6F894DEBF40
:103CE0000FBECDBFDF91CF911F910F9108950F931C
:103CF0001F93CF93DF9300D000D0CDB7DEB7BC01C8
:103D0000CE0101960E94901DBE016F5F7F4F89E931
:103D100097E00E94681C8C01CE0101960E94EF0979
:103D2000C80126960FB6F894DEBF0FBECDBFDF9157
:103D3000CF911F910F9108950F931F93CF93DF930E
:103D400000D000D0CDB7DEB7BC01CE0101960E94F5
:103D5000901DBE016F5F7F4F85E997E00E94681C50
:103D60008C01CE0101960E94EF09C80126960FB67C
:103D7000F894DEBF0FBECDBFDF91CF911F910F91A1
:103D800008950F931F93CF93DF9300D000D0CDB74A
:103D9000DEB7BC01CE0101960E94901DBE016F5F8F
:103DA0007F4F81E997E00E94681C8C01CE0101964B
:103DB0000E94EF09C80126960FB6F894DEBF0FBE29
:103DC000CDBFDF91CF911F910F9108950F931F9356
:103DD000CF93DF9300D000D0CDB7DEB7BC01CE01CA
:103DE00001960E94901DBE016F5F7F4F8DE897E0A6
:103DF0000E94681C8C01CE0101960E94EF09C80147
:103E000026960FB6F894DEBF0FBECDBFDF91CF91DF
:103E10001F910F9108950F931F93CF93DF9300D0BD
:103E200000D0CDB7DEB7BC01CE0101960E94901D37
:103E3000BE016F5F7F4F89E897E00E94681C8C018C
:103E4000CE0101960E94EF09C80126960FB6F8949C
:103E5000DEBF0FBECDBFDF91CF911F910F910895AF
:103E60000F931F93CF93DF9300D000D0CDB7DEB771
:103E7000BC01CE0101960E94901DBE016F5F7F4F75
:103E800085E897E00E94681C8C01CE0101960E9493
:103E9000EF09C80126960FB6F894DEBF0FBECDBF5E
:103EA000DF91CF911F910F9108950F931F93CF939F
:103EB000DF9300D000D0CDB7DEB7BC01CE010196B4
:103EC0000E94901DBE016F5F7F4F81E897E00E94C6
:103ED000681C8C01CE0101960E94EF09C80126964C
:103EE0000FB6F894DEBF0FBECDBFDF91CF911F910B
:103EF0000F9108950F931F93CF93DF9300D000D0BD
:103F0000CDB7DEB7BC01CE0101960E94901DBE0167
:103F10006F5F7F4F8DE797E00E94681C8C01CE0198
:103F200001960E94EF09C80126960FB6F894DEBFED
:103F30000FBECDBFDF91CF911F910F9108950F93C9
:103F40001F93CF93DF9300D000D0CDB7DEB7BC0175
:103F5000CE0101960E94901DBE016F5F7F4F89E7E1
:103F600097E00E94681C8C01CE0101960E94EF0927
:103F7000C80126960FB6F894DEBF0FBECDBFDF9105
:103F8000CF911F910F9108950F931F93CF93DF93BC
:103F900000D000D0CDB7DEB7BC01CE0101960E94A3
:103FA000901DBE016F5F7F4F85E797E00E94681C00
:103FB0008C01CE0101960E94EF09C80126960FB62A
:103FC000F894DEBF0FBECDBFDF91CF911F910F914F
:103FD00008950F931F93CF93DF9300D000D0CDB7F8
:103FE000DEB7BC01CE0101960E94901DBE016F5F3D
:103FF0007F4F81E797E00E94681C8C01CE010196FB
:104000000E94EF09C80126960FB6F894DEBF0FBED6
:10401000CDBFDF91CF911F910F9108950F931F9303
:10402000CF93DF9300D000D0CDB7DEB7BC01CE0177
:1040300001960E94901DBE016F5F7F4F8DE697E055
:104040000E94681C8C01CE0101960E94EF09C801F4
:1040500026960FB6F894DEBF0FBECDBFDF91CF918D
:104060001F910F9108950F931F93CF93DF9300D06B
:1040700000D0CDB7DEB7BC01CE0101960E94901DE5
:10408000BE016F5F7F4F89E697E00E94681C8C013C
:10409000CE0101960E94EF09C80126960FB6F8944A
:1040A000DEBF0FBECDBFDF91CF911F910F9108955D
:1040B000FC01118210821382128215821482611512
:1040C000710551F0FB0101900020E9F73197AF0134
:1040D000461B570B0C94EB1C0895AF92BF92CF92E6
:1040E000DF92EF92FF920F931F93CF93DF936C01B8
:1040F0005B017A0189012417350720F48F2D79019E
:10410000042F182F67EA72E0C6010E945820D501DB
:104110001496CD91DC91EC16FD06E0F40C171D070A
:1041200008F4E801D501ED91FC911197EC0FFD1F0A
:10413000108110826D917C916E0D7F1DC6016115FD
:104140007105A1F00E940C1DF50180819181C80FBD
:10415000D91F1883C601DF91CF911F910F91FF9056
:10416000EF90DF90CF90BF90AF9008950E94DD094F
:10417000EBCF3F924F925F926F927F928F929F927E
:10418000AF92BF92CF92DF92EF92FF920F931F9365
:10419000CF93DF93CDB7DEB7EA970FB6F894DEBFC3
:1041A0000FBECDBF7C012A013B0169010E94E905D8
:1041B0004B015C0187010D5B1F4FC8010E94691311
:1041C000181619069CF00E94E905681979098A09F0
:1041D0009B09461657066806790608F466C162E32D
:1041E00070E080E090E00E94B605E7CF42E250E048
:1041F000BE016F5F7F4FC8010E942013898182300A
:10420000D1F0312C832DEA960FB6F894DEBF0FBEA5
:10421000CDBFDF91CF911F910F91FF90EF90DF9075
:10422000CF90BF90AF909F908F907F906F905F9056
:104230004F903F900895F8018489958983349105C2
:1042400001F76D817E818F8198850E9424344B0116
:104250005C01F60180829182A282B38246E050E046
:10426000B701685F7F4FCE014D960E943136892B92
:1042700041F6F70180819181A281B3818816990668
:10428000AA06BB0608F4BDCF84819581A681B781BB
:1042900088159905AA05BB0508F4B3CF89899A89C1
:1042A000AB89BC8986879787A08BB18B4EEC50E099
:1042B00070E060E0C8010E942013312CC701829693
:1042C00098AB8FA7F701B696FAABE9AB08969CAB13
:1042D0008BAB67019AE1C90ED11CBD96FEABEDAB6D
:1042E000C701429698AF8FABFD97FAAFE9AF470190
:1042F000FEE18F0E911CF801818D928D1816190622
:104300000CF080CFC8010E943F138333910509F45C
:10431000B2C014F58130910509F464C044F4892BCE
:1043200051F3C8010E943F13AC01552775C083307B
:10433000910509F462C00697A1F7C8010E943F13D6
:10434000B82E44E050E0B401C8010E942013EB2DC8
:10435000E450FF0BAF0160C08A33910509F45FC0E0
:1043600084F585339105B1F1C697D9F6C8010E944D
:104370003F135C01B601CE0189960E946D0A8BA5A0
:104380009CA5ADA5BEA5892B8A2B8B2BB1F0EDA9E1
:10439000FEA94080518062807380B601CE01839671
:1043A0000E946D0A8DA19EA1AFA1B8A5A5014816D6
:1043B00059066A067B0609F0B8CF44E050E0B60122
:1043C00018C08B33910509F440C08F3F910509F463
:1043D00092CFA7CFC8010E943F13C8010E943F138C
:1043E000382E89CFC8010E943F1344E050E06FA9E6
:1043F00078ADC8010E9420137ECFC8010E943F13F0
:10440000B82E44E050E069AD7AADC8010E94201397
:104410008B2D8450990BAC0170E060E0EACFC801AD
:104420000E943F1344E050E069A97AA9C8010E94A4
:104430002013F70166A177A180A591A50E942434DD
:1044400066A377A380A791A756CFC8010E943F1308
:1044500044E050E06BA97CA9C8010E942013F70139
:1044600062A573A584A595A50E94243462A773A7AD
:1044700084A795A740CFC8010E943F1344E050E0B5
:104480006FA578A9C8010E942013F70162A173A14A
:1044900084A195A10E94243462A373A384A395A34D
:1044A00066A777A780AB91AB26CF33243A94AACEE8
:1044B0001F920F920FB60F9211240BB60F922F93EB
:1044C0003F934F935F936F937F938F939F93AF939C
:1044D000BF93EF93FF938FEC95E00E94BA03FF9197
:1044E000EF91BF91AF919F918F917F916F915F916C
:1044F0004F913F912F910F900BBE0F900FBE0F90D9
:104500001F9018951F920F920FB60F9211240BB6A1
:104510000F922F938F939F93EF93FF93E091DF057B
:10452000F091E0058081E091E505F091E60582FDDE
:104530001DC090818091E8058F5F8F732091E90500
:10454000821741F0E091E805F0E0E153FA4F958FD2
:104550008093E805FF91EF919F918F912F910F909C
:104560000BBE0F900FBE0F901F9018958081F2CF59
:104570001F920F920FB60F9211242F933F938F9398
:104580009F93AF93BF938091140590911505A091CF
:104590001605B09117053091130523E0230F2D3731
:1045A00058F50196A11DB11D2093130580931405A4
:1045B00090931505A0931605B093170580911805E3
:1045C00090911905A0911A05B0911B050196A11DA6
:1045D000B11D8093180590931905A0931A05B09307
:1045E0001B05BF91AF919F918F913F912F910F909C
:1045F0000FBE0F901F90189526E8230F0296A11D5D
:10460000B11DD2CF9F92AF92BF92CF92DF92EF9225
:10461000FF920F931F93CF93DF93EFECF5E013829C
:10462000128288EEC82E83E0D82EE12CF12CC482B1
:10463000D582E682F78286E492E09183808385ECDE
:1046400090E09587848784EC90E09787868780EC5C
:1046500090E0918B808B81EC90E0938B828B82EC4D
:1046600090E0958B848B86EC90E0978B868B118EF7
:10467000128E138E148EECE6F6E08CE892E09183B5
:1046800080831282138214821582E2E7F6E091831E
:1046900080831282138214821582E8E7F6E0918308
:1046A00080831282138214821582EEE7F6E09183F2
:1046B00080831282138214821582E4E8F6E09183EB
:1046C00080831282138214821582E0E9F6E09183DE
:1046D00080831282138214821582EAE8F6E09183C5
:1046E00080831282138214821582E6E9F6E09183B8
:1046F00080831282138214821582ECE9F6E09183A2
:1047000080831282138214821582EFE4F0E1918398
:1047100080831282138214821582E9E4F0E191838E
:10472000808380EC828388EA838311E014838DE3A5
:104730008583E3E4F0E11382128282E992E09183BF
:10474000808380E590E095838483C5EBD7E086E89D
:1047500092E09983888367EA72E087EB97E00E9492
:10476000582067EA72E08CED97E00E94582067EAD3
:1047700072E082EE97E00E94582067EA72E088EECD
:1047800097E00E945820C092C50FD092C60FE092C9
:10479000C70FF092C80F85E788878B871E868FEF3B
:1047A0008093C00F80EB92E0988B8F8789EB9BE022
:1047B0009A8B898B40E063E070E081EB97E00E9488
:1047C000980940E065E070E08DEA97E00E94980962
:1047D00040E066E070E089EA97E00E94980940E0D6
:1047E00067E070E085EA97E00E94980940E069E0A0
:1047F00070E081EA97E00E94980940E06AE070E08A
:104800008DE997E00E94980940E06BE070E089E94B
:1048100097E00E94980940E062E170E085E997E046
:104820000E94980940E063E170E081E997E00E940E
:10483000980940E064E170E08DE897E00E949809F3
:1048400040E065E170E089E897E00E94980940E067
:1048500067E170E085E897E00E94980941E06AE12D
:1048600070E081E897E00E94980941E06BE170E018
:104870008DE797E00E94980941E062E270E089E7E5
:1048800097E00E94980941E063E270E085E797E0D5
:104890000E94980941E064E270E081E797E00E949D
:1048A000980941E069E270E08DE697E00E9498097E
:1048B00041E06AE270E089E697E00E949809E9E445
:1048C000F7E0168E178E118E1082118212821382DB
:1048D000108E148215821682178210861186128617
:1048E00013861486158616861786108A118A128AF0
:1048F000138A148A158A168A178AC1EBD6E01882A1
:104900006EEB72E082EB96E00E9458209EE0992EBA
:104910009F82188766EC72E08AEB96E00E9458202E
:1049200082E08F87888B6EEC72E082EC96E00E94CA
:10493000582004E00F8B83E0888F6AED72E08AECE8
:1049400096E00E94582018E01F8F08A360EE72E0E6
:1049500082ED96E00E9458202FE0A22EAFA285E0C3
:1049600088A76DEE72E08AED96E00E94582030E153
:10497000B32EBFA686E088AB6AEF72E082EE96E0C7
:104980000E94582001E10FAB87E088AF67E073E039
:104990008AEE96E00E94582086E18FAF1093F106D0
:1049A00062E173E082EF96E00E94582088E18093F4
:1049B000F80689E08093F90660E273E08AEF96E0FA
:1049C0000E94582089E1809300078AE080930107C4
:1049D0006EE273E082E097E00E9458208DE18093C0
:1049E00008078BE0809309076BE373E08AE097E0A8
:1049F0000E9458208CE1809310078CE0809311076F
:104A000068E473E082E197E00E9458208EE1809391
:104A100018078DE08093190765E573E08AE197E058
:104A20000E9458208FE1809320079092210762E630
:104A300073E082E297E00E94582080E2809328078A
:104A4000A09229076FE673E08AE297E00E9458205F
:104A500081E280933007B09231076CE773E082E324
:104A600097E00E94582085E2809338070093390729
:104A70006BE873E08AE397E00E945820C6E2C09397
:104A8000400782E1809341076AE973E082E497E09E
:104A90000E945820C0934807E2EAF6E0138212828F
:104AA000C482D582E682F78288E592E09183808392
:104AB000148788EE93E096878587DF91CF911F91C9
:104AC0000F91FF90EF90DF90CF90BF90AF909F90AD
:104AD0000895CF93DF93CDB7DEB7A7970FB6F894BD
:104AE000DEBF0FBECDBF789484B5826084BD84B52F
:104AF000816084BD85B5826085BD85B5816085BDD9
:104B000080916E00816080936E0010928100809190
:104B10008100826080938100809181008160809318
:104B20008100809180008160809380008091B1003D
:104B300084608093B1008091B00081608093B00068
:104B400080919100826080939100809191008160BA
:104B5000809391008091900081608093900080917B
:104B6000A10082608093A1008091A1008160809368
:104B7000A1008091A00081608093A000809121011C
:104B800082608093210180912101816080932101C5
:104B90008091200181608093200180917A0084605F
:104BA00080937A0080917A00826080937A0080916D
:104BB0007A00816080937A0080917A008068809387
:104BC0007A001092C100E091DF05F091E00512E05B
:104BD000D12ED082E091DB05F091DC051082E091CE
:104BE000DD05F091DE0500E100831092E705E0911C
:104BF000E305F091E40586E08083E091E105F09122
:104C0000E205808180618083E091E105F091E20519
:104C1000808188608083E091E105F091E2058081E8
:104C200080688083E091E105F091E20580818F7DCD
:104C3000808389E4E82E87E0F82E1092680780E0F0
:104C40000E94F50511E01093670780E00E94F505CA
:104C500082E390E0A0E0B0E080934D0790934E0790
:104C6000A0934F07B09350078AEF90E0A0E0B0E028
:104C70008093510790935207A0935307B093540722
:104C800088E893E1A0E0B0E0809355079093560741
:104C9000A0935707B093580798EE892E93E0992E6A
:104CA000A12CB12C8092590790925A07A0925B07D1
:104CB000B0925C0784EF91E0A0E0B0E080935D07E4
:104CC00090935E07A0935F07B09360071F9286E200
:104CD0008F931F928F931F9285E28F931F9281E291
:104CE0008F931F9280E28F931F928FE18F931F9279
:104CF0008EE18F931F928CE18F931F928DE18F93A2
:104D00001F9289E18F931F9288E18F931F9286E112
:104D10008F931F9281E18F931F920F931F928FE0C9
:104D20008F931F9208E00F931F9284E08F931F923E
:104D3000DF921F928EE08F9383E18F93FF92EF9229
:104D40000E94140A8DB79EB789960FB6F8949EBF3D
:104D50000FBE8DBF6AEA73E0CE0143960E945820D1
:104D60002AE030E050E040E0BE016D5E7F4FCE01B2
:104D700001960E946D20BE016F5F7F4F8CED97E022
:104D80000E945919CE0101960E94EF09CE01439667
:104D90000E94EF096EEA73E088EC97E00E946236A9
:104DA00080917D05811124C01092650510926405E3
:104DB0008092660590926705A0926805B092690599
:104DC0008CE192E090936305809362058CE892E019
:104DD000909371058093700510927205109273057F
:104DE000109274051092750500937A0510937D0555
:104DF0008FE195E090931E0580931D058091CE056F
:104E0000882309F4B4C680E591E00E94190346E0C6
:104E100050E062E072E089E090E00E949A078CE83E
:104E200092E09A8389831B821C821D821E82CE019E
:104E300003960E94100910924105109242051092AB
:104E400043051092440510924505109246051092B4
:104E50004705109248051092490510924A05109294
:104E60004B0510924C0580E69AEEA0E0B0E08093EE
:104E7000550590935605A0935705B093580580EAC1
:104E80009FE0A0E0B0E08093590590935A05A0936D
:104E90005B05B0935C05EDE2F5E084E1DF011D9276
:104EA0008A95E9F786E0E2E0F2E0A7E2B5E001905A
:104EB0000D928A95E1F7109261050E94D0322FEC95
:104EC00037E040E050E00E94A533DC01CB010196C1
:104ED000A11DB11D8093230590932405A093250562
:104EE000B093260580931F0590932005A09321057C
:104EF000B093220582E695E00E94490B64E470E0DD
:104F000082E695E00E94A014882309F434C60E942A
:104F1000E9056B017C01A8EE4A2EA3E05A2E612C14
:104F2000712CB3E09B2E02E0B12CA12C8091610585
:104F3000833009F440C081113FC6809123059091D0
:104F40002405A0912505B09126050196A11DB11D4E
:104F50008093230590932405A0932505B0932605FF
:104F60000E94E9056C197D098E099F09A301920130
:104F70000E94D733A90161E08FE195E00E94921968
:104F800081E08093610591E0A916B10479F20E9455
:104F9000E9056C197D098E099F092091550530910D
:104FA0005605409157055091580526173707480771
:104FB000590708F0B9CF82E695E00E94490B80912D
:104FC000230590912405A0912505B0912605019611
:104FD000A11DB11D8093230590932405A093250561
:104FE000B09326050E94E90560935D0570935E0508
:104FF00080935F0590936005AA94AB2809F0BBC528
:1050000080E591E00E94190300911D0510911E0595
:10501000B801625F7F4FCE0101960E946D0ACE01FA
:1050200003960E941009B8016A5E7F4FCE01019677
:105030000E946D0A44E050E0BE016D5F7F4F81E049
:1050400090E00E949A07B8016E5E7F4FCE010196F4
:105050000E946D0A44E050E0BE016D5F7F4F85E025
:1050600090E00E949A07B801625E7F4FCE010196E0
:105070000E946D0A8B819C81AD81BE8180938C06DC
:1050800090938D06A0938E06B0938F060E94910593
:105090007F738091000290910102682779277093B5
:1050A00001026093000283E490E10E941C1862EE0A
:1050B00073E08FEC95E00E94A01A8CE892E09A834E
:1050C00089831B821C821D821E8280E591E00E94E2
:1050D000190344E050E0BE016D5F7F4F8FE090E028
:1050E0000E94790A6FEC75E0CE0101960E94121BB6
:1050F00065EA72E08FEC95E00E94A01A88E198E2E0
:105100000FB6F894A895809360000FBE909360004E
:105110008091F20F282F30E0F901EE0FFF1FE55EBE
:10512000FF4E40EF53E051834083220F331FF901BC
:10513000ED50F04F29E93DE13183208321E0280F34
:1051400030E0F901EE0FFF1FE55EFF4E45EF53E043
:1051500051834083220F331FF901ED50F04F2EEBA6
:105160003DE13183208322E0280F30E0F901EE0F8A
:10517000FF1FE55EFF4E4EEF53E051834083220F49
:10518000331FF901ED50F04F23EE3DE131832083D1
:1051900023E0280F30E0F901EE0FFF1FE55EFF4E20
:1051A0004AE054E051834083220F331FF901ED5050
:1051B000F04F28E03EE13183208324E0280F30E0E7
:1051C000F901EE0FFF1FE55EFF4E48E154E0518309
:1051D0004083220F331FF901ED50F04F2DE23EE1E5
:1051E0003183208325E0280F30E0F901EE0FFF1F07
:1051F000E55EFF4E4BE154E051834083220F331FA5
:10520000F901ED50F04F22E53EE13183208326E0A5
:10521000280F30E0F901EE0FFF1FE55EFF4E41E27F
:1052200054E051834083220F331FF901ED50F04FBA
:1052300027E73EE13183208327E0280F30E0F901A2
:10524000EE0FFF1FE55EFF4E49E254E051834083BD
:10525000220F331FF901ED50F04F2CE93EE131836D
:10526000208328E0280F30E0F901EE0FFF1FE55EF4
:10527000FF4E41E354E051834083220F331FF90175
:10528000ED50F04F21EC3EE13183208329E0280FDF
:1052900030E0F901EE0FFF1FE55EFF4E4AE354E0F8
:1052A00051834083220F331FF901ED50F04F26EE5A
:1052B0003EE1318320832AE0280F30E0F901EE0F30
:1052C000FF1FE55EFF4E43E454E051834083220F0D
:1052D000331FF901ED50F04F2BE03FE13183208384
:1052E0002BE0280F30E0F901EE0FFF1FE55EFF4EC7
:1052F0004FE454E051834083220F331FF901ED50F6
:10530000F04F20E33FE1318320832CE0280F30E091
:10531000F901EE0FFF1FE55EFF4E47E554E05183B4
:105320004083220F331FF901ED50F04F25E53FE197
:10533000318320832DE0280F30E0F901EE0FFF1FAD
:10534000E55EFF4E42E654E051834083220F331F57
:10535000F901ED50F04F2AE73FE1318320832EE041
:10536000280F30E0F901EE0FFF1FE55EFF4E42E728
:1053700054E051834083220F331FF901ED50F04F69
:105380002FE93FE1318320832FE0280F30E0F9013E
:10539000EE0FFF1FE55EFF4E4AE754E05183408366
:1053A000220F331FF901ED50F04F24EC3FE1318320
:1053B000208320E1280F30E0F901EE0FFF1FE55EAA
:1053C000FF4E48E854E051834083220F331FF90118
:1053D000ED50F04F29EE3FE13183208321E1280F8A
:1053E00030E0F901EE0FFF1FE55EFF4E46E954E0A5
:1053F00051834083220F331FF901ED50F04F2EE00F
:1054000030E23183208322E1280F30E0F901EE0FF2
:10541000FF1FE55EFF4E40EA54E051834083220FB8
:10542000331FF901ED50F04F23E330E23183208345
:105430008D5E8093F20F82E3282E312C92E7592E55
:1054400028E7622E81E00E94F50580E00E94EF02CD
:105450008823E9F06EEB72E0CE0143960E9458205B
:10546000BE016D5E7F4FCE0101960E94901D6FEAD6
:1054700074E0CE0101960E94B51C0E94AF1ACE01C5
:1054800001960E94EF09CE0143960E94EF09809198
:105490006207882309F44DC0E0916507F091660723
:1054A000808585FF21C06EEB72E0CE0143960E949D
:1054B0005820BE016D5E7F4FCE0101960E94901D67
:1054C0006EEB74E0CE0101960E94B51C0E94AF1AEB
:1054D000CE0101960E94EF09CE0143960E94EF098A
:1054E00080916207882329F1809165079091660772
:1054F0000E946E098823E9F06EEB72E0CE014396BC
:105500000E945820BE016D5E7F4FCE0101960E9421
:10551000901D6DEC74E0CE0101960E94B51C0E94B6
:10552000AF1ACE0101960E94EF09CE0143960E9468
:10553000EF0980E00E9404038823E9F06EEB72E03B
:10554000CE0143960E945820BE016D5E7F4FCE0172
:1055500001960E94901D6FED74E0CE0101960E94AD
:10556000B51C0E94AF1ACE0101960E94EF09CE0130
:1055700043960E94EF0981E00E94EF028823E9F040
:105580006EEB72E0CE0143960E945820BE016D5E24
:105590007F4FCE0101960E94901D6FEA74E0CE010C
:1055A00001960E94B51C0E94AF1ACE0101960E947E
:1055B000EF09CE0143960E94EF0980916207823085
:1055C00008F44EC0E0916507F0916607818985FF78
:1055D00021C06EEB72E0CE0143960E945820BE01BE
:1055E0006D5E7F4FCE0101960E94901D6EEB74E0C0
:1055F000CE0101960E94B51C0E94AF1ACE01019601
:105600000E94EF09CE0143960E94EF098091620744
:10561000823030F1809165079091660709960E946B
:105620006E098823E9F06EEB72E0CE0143960E948A
:105630005820BE016D5E7F4FCE0101960E94901DE5
:105640006DEC74E0CE0101960E94B51C0E94AF1A69
:10565000CE0101960E94EF09CE0143960E94EF0908
:1056600081E00E9404038823E9F06EEB72E0CE0132
:1056700043960E945820BE016D5E7F4FCE01019679
:105680000E94901D6FED74E0CE0101960E94B51C42
:105690000E94AF1ACE0101960E94EF09CE014396F7
:1056A0000E94EF0963E470E1CE0143960E946A1103
:1056B000CE0143960E944812892B09F4EAC677244A
:1056C000739447E7442ECE0143960E944812892BDB
:1056D00009F413C4CE0143960E94C513F82E60E06E
:1056E00070E0CB010E94B60567EB77E0CE01019632
:1056F0000E94901DFAA21BA20D811E810F5F1F4FF9
:10570000B801CE0101960E948D1C811157C3CE01B4
:1057100001960E94DD09BE016F5F7F4F87EB97E026
:105720000E94791DCE0101960E94EF098091C00769
:10573000853749F6BFE2FB1619F0EDE0FE12C3CF44
:105740008091BD078D3671F48091C307882351F095
:1057500070E060E087EB97E00E943303DC018C91FE
:105760008093C0078091BD078436A9F48091C30758
:10577000882389F08091C007853769F470E060E084
:1057800087EB97E00E943303FC018081823709F0A8
:1057900023C38093C0078091BD078136A9F480910F
:1057A000C307882389F08091C007853769F470E0CA
:1057B00060E087EB97E00E943303DC018C91823735
:1057C00009F015C38093C0078091BD07853709F4A0
:1057D00055C08091C307811151C070E060E087EB34
:1057E00097E00E943303FC018081813409F00AC3F1
:1057F00061E070E087EB97E00E943303DC018C915D
:1058000082528093BE078091BE078093BF0770923B
:10581000C30761E070E087EB97E00E943303FC016F
:1058200080818F3209F0F5C261E070E087EB97E08C
:105830000E943303DC018C91803259F462E070E005
:1058400087EB97E00E943303FC0180818F3209F4DB
:10585000EBC262E070E087EB97E00E943303DC016B
:105860008C91803259F463E070E087EB97E00E94FE
:105870003303DC018C918F3209F4D6C260EF74E0FF
:10588000CE0101960E945820CE0101960E94F70990
:10589000182FCE0101960E94EF09112319F0B4E6EA
:1058A000B093BD0768EF74E0CE0101960E945820C6
:1058B000CE0101960E94F709182FCE0101960E9491
:1058C000EF09112319F0EDE6E093BD076DEF74E0E9
:1058D000CE0101960E945820CE0101960E94F70940
:1058E000182FCE0101960E94EF09112319F0F1E65D
:1058F000F093BD078091BD07853709F031C1F12CC8
:105900008091C90FF81620F50F2D10E0F801EE0F69
:10591000FF1FE252F04F60817181CE0101960E941B
:105920005820CE0101960E94F709E82ECE0101967B
:105930000E94EF09EE2009F49FC27092C3076092A3
:10594000C00786E78093BD071093C2070093C10785
:10595000F12C8091F20FF81608F0D0C00F2D10E056
:1059600068019DECC91A9BEFD90AF601EE0FFF1FE3
:10597000EB54F84F60817181CE0101960E9458204E
:10598000CE0101960E94F709E82ECE0101960E94F1
:10599000EF09EE2009F4AFC27092C3076092C0070E
:1059A000A6E6A093BD071093C2070093C107A0907D
:1059B000B707B090B807A114B10449F00091BB0734
:1059C0001091BC0775010115110509F058C267EA6D
:1059D00072E088EE97E00E940C1DF601EE0FFF1FAB
:1059E000EB54F84FA081B181FD0101900020E9F74F
:1059F00031978F010A1B1B0B98012F5F3F4FA801A6
:105A000067EB77E0CE0101960E946D208D819E812B
:105A1000892B51F064E075E089819A810E945936A2
:105A2000FF24F394892B09F0F12CCE0101960E94FA
:105A3000EF09FF2009F462C0E090BB07F090BC07BB
:105A400066E075E0CE0101960E9458202091BB07C8
:105A50003091BC074D815E8124173507A8F08091F5
:105A6000B7079091B807009779F069817A8161153D
:105A7000710551F0241B350B820F931F0E9459367C
:105A8000DD24D394892B09F0D12CCE0101960E94FC
:105A9000EF09DD2019F0B6E0EB1AF1088091BB07A1
:105AA0009091BC070817190780F4C090B707D090F1
:105AB000B8076DE370E0C601800F911F0E944E365B
:105AC000AC014C195D09892B11F44FEF5FEF4F3F8B
:105AD0005407A1F04F5F5F4F970167EB77E0CE016E
